{
  "_format": "hh-sol-artifact-1",
  "contractName": "Escrow",
  "sourceName": "contracts/Escrow.sol",
  "abi": [
    {
      "inputs": [
        {
          "internalType": "uint256",
          "name": "_amount",
          "type": "uint256"
        },
        {
          "internalType": "uint256",
          "name": "_deadline",
          "type": "uint256"
        },
        {
          "internalType": "string",
          "name": "_title",
          "type": "string"
        },
        {
          "internalType": "string",
          "name": "_description",
          "type": "string"
        },
        {
          "internalType": "string",
          "name": "_networkId",
          "type": "string"
        }
      ],
      "stateMutability": "nonpayable",
      "type": "constructor"
    },
    {
      "anonymous": false,
      "inputs": [
        {
          "indexed": false,
          "internalType": "string",
          "name": "reason",
          "type": "string"
        }
      ],
      "name": "AgreementCanceled",
      "type": "event"
    },
    {
      "anonymous": false,
      "inputs": [
        {
          "indexed": true,
          "internalType": "address",
          "name": "creator",
          "type": "address"
        },
        {
          "indexed": false,
          "internalType": "uint256",
          "name": "amount",
          "type": "uint256"
        },
        {
          "indexed": false,
          "internalType": "uint256",
          "name": "deadline",
          "type": "uint256"
        },
        {
          "indexed": false,
          "internalType": "string",
          "name": "title",
          "type": "string"
        }
      ],
      "name": "AgreementCreated",
      "type": "event"
    },
    {
      "anonymous": false,
      "inputs": [
        {
          "indexed": false,
          "internalType": "string",
          "name": "reason",
          "type": "string"
        },
        {
          "indexed": false,
          "internalType": "uint256",
          "name": "proposedAmount",
          "type": "uint256"
        }
      ],
      "name": "DisputeOpened",
      "type": "event"
    },
    {
      "anonymous": false,
      "inputs": [
        {
          "indexed": true,
          "internalType": "address",
          "name": "depositor",
          "type": "address"
        },
        {
          "indexed": false,
          "internalType": "uint256",
          "name": "amount",
          "type": "uint256"
        }
      ],
      "name": "FundsFilled",
      "type": "event"
    },
    {
      "anonymous": false,
      "inputs": [
        {
          "indexed": true,
          "internalType": "address",
          "name": "receiver",
          "type": "address"
        },
        {
          "indexed": false,
          "internalType": "uint256",
          "name": "amount",
          "type": "uint256"
        }
      ],
      "name": "FundsReleased",
      "type": "event"
    },
    {
      "inputs": [],
      "name": "amount",
      "outputs": [
        {
          "internalType": "uint256",
          "name": "",
          "type": "uint256"
        }
      ],
      "stateMutability": "view",
      "type": "function"
    },
    {
      "inputs": [
        {
          "internalType": "string",
          "name": "_reason",
          "type": "string"
        }
      ],
      "name": "cancel",
      "outputs": [],
      "stateMutability": "nonpayable",
      "type": "function"
    },
    {
      "inputs": [],
      "name": "cancelReason",
      "outputs": [
        {
          "internalType": "string",
          "name": "",
          "type": "string"
        }
      ],
      "stateMutability": "view",
      "type": "function"
    },
    {
      "inputs": [],
      "name": "canceledAt",
      "outputs": [
        {
          "internalType": "uint256",
          "name": "",
          "type": "uint256"
        }
      ],
      "stateMutability": "view",
      "type": "function"
    },
    {
      "inputs": [],
      "name": "createdAt",
      "outputs": [
        {
          "internalType": "uint256",
          "name": "",
          "type": "uint256"
        }
      ],
      "stateMutability": "view",
      "type": "function"
    },
    {
      "inputs": [],
      "name": "creator",
      "outputs": [
        {
          "internalType": "address",
          "name": "",
          "type": "address"
        }
      ],
      "stateMutability": "view",
      "type": "function"
    },
    {
      "inputs": [],
      "name": "deadline",
      "outputs": [
        {
          "internalType": "uint256",
          "name": "",
          "type": "uint256"
        }
      ],
      "stateMutability": "view",
      "type": "function"
    },
    {
      "inputs": [],
      "name": "deposit",
      "outputs": [],
      "stateMutability": "payable",
      "type": "function"
    },
    {
      "inputs": [],
      "name": "depositor",
      "outputs": [
        {
          "internalType": "address",
          "name": "",
          "type": "address"
        }
      ],
      "stateMutability": "view",
      "type": "function"
    },
    {
      "inputs": [],
      "name": "description",
      "outputs": [
        {
          "internalType": "string",
          "name": "",
          "type": "string"
        }
      ],
      "stateMutability": "view",
      "type": "function"
    },
    {
      "inputs": [],
      "name": "disputeReason",
      "outputs": [
        {
          "internalType": "string",
          "name": "",
          "type": "string"
        }
      ],
      "stateMutability": "view",
      "type": "function"
    },
    {
      "inputs": [],
      "name": "disputedAt",
      "outputs": [
        {
          "internalType": "uint256",
          "name": "",
          "type": "uint256"
        }
      ],
      "stateMutability": "view",
      "type": "function"
    },
    {
      "inputs": [],
      "name": "emergencyRelease",
      "outputs": [],
      "stateMutability": "nonpayable",
      "type": "function"
    },
    {
      "inputs": [],
      "name": "filledAt",
      "outputs": [
        {
          "internalType": "uint256",
          "name": "",
          "type": "uint256"
        }
      ],
      "stateMutability": "view",
      "type": "function"
    },
    {
      "inputs": [],
      "name": "networkId",
      "outputs": [
        {
          "internalType": "string",
          "name": "",
          "type": "string"
        }
      ],
      "stateMutability": "view",
      "type": "function"
    },
    {
      "inputs": [
        {
          "internalType": "string",
          "name": "_reason",
          "type": "string"
        },
        {
          "internalType": "uint256",
          "name": "_proposedAmount",
          "type": "uint256"
        }
      ],
      "name": "openDispute",
      "outputs": [],
      "stateMutability": "nonpayable",
      "type": "function"
    },
    {
      "inputs": [],
      "name": "proposedAmount",
      "outputs": [
        {
          "internalType": "uint256",
          "name": "",
          "type": "uint256"
        }
      ],
      "stateMutability": "view",
      "type": "function"
    },
    {
      "inputs": [
        {
          "internalType": "uint256",
          "name": "_releaseAmount",
          "type": "uint256"
        },
        {
          "internalType": "string",
          "name": "_description",
          "type": "string"
        }
      ],
      "name": "release",
      "outputs": [],
      "stateMutability": "nonpayable",
      "type": "function"
    },
    {
      "inputs": [],
      "name": "releaseDescription",
      "outputs": [
        {
          "internalType": "string",
          "name": "",
          "type": "string"
        }
      ],
      "stateMutability": "view",
      "type": "function"
    },
    {
      "inputs": [],
      "name": "releasedAmount",
      "outputs": [
        {
          "internalType": "uint256",
          "name": "",
          "type": "uint256"
        }
      ],
      "stateMutability": "view",
      "type": "function"
    },
    {
      "inputs": [],
      "name": "releasedAt",
      "outputs": [
        {
          "internalType": "uint256",
          "name": "",
          "type": "uint256"
        }
      ],
      "stateMutability": "view",
      "type": "function"
    },
    {
      "inputs": [
        {
          "internalType": "uint256",
          "name": "_releaseAmount",
          "type": "uint256"
        },
        {
          "internalType": "string",
          "name": "_description",
          "type": "string"
        }
      ],
      "name": "resolveDispute",
      "outputs": [],
      "stateMutability": "nonpayable",
      "type": "function"
    },
    {
      "inputs": [],
      "name": "status",
      "outputs": [
        {
          "internalType": "enum Escrow.Status",
          "name": "",
          "type": "uint8"
        }
      ],
      "stateMutability": "view",
      "type": "function"
    },
    {
      "inputs": [],
      "name": "title",
      "outputs": [
        {
          "internalType": "string",
          "name": "",
          "type": "string"
        }
      ],
      "stateMutability": "view",
      "type": "function"
    }
  ],
  "bytecode": "0x60806040523480156200001157600080fd5b5060405162002cdd38038062002cdd833981810160405281019062000037919062000384565b336000806101000a81548173ffffffffffffffffffffffffffffffffffffffff021916908373ffffffffffffffffffffffffffffffffffffffff1602179055506000600160006101000a81548173ffffffffffffffffffffffffffffffffffffffff021916908373ffffffffffffffffffffffffffffffffffffffff16021790555084600281905550836003819055508260049081620000d89190620006aa565b508160059081620000ea9190620006aa565b508060069081620000fc9190620006aa565b506000600760006101000a81548160ff0219169083600481111562000126576200012562000791565b5b02179055504260088190555060008054906101000a900473ffffffffffffffffffffffffffffffffffffffff1673ffffffffffffffffffffffffffffffffffffffff167fb7bd3e4cd014000c97f7181bbdd0ae34892ba3c08fea221e46b52961a9401f466002546003546004604051620001a39392919062000872565b60405180910390a25050505050620008b6565b6000604051905090565b600080fd5b600080fd5b6000819050919050565b620001df81620001ca565b8114620001eb57600080fd5b50565b600081519050620001ff81620001d4565b92915050565b600080fd5b600080fd5b6000601f19601f8301169050919050565b7f4e487b7100000000000000000000000000000000000000000000000000000000600052604160045260246000fd5b6200025a826200020f565b810181811067ffffffffffffffff821117156200027c576200027b62000220565b5b80604052505050565b600062000291620001b6565b90506200029f82826200024f565b919050565b600067ffffffffffffffff821115620002c257620002c162000220565b5b620002cd826200020f565b9050602081019050919050565b60005b83811015620002fa578082015181840152602081019050620002dd565b60008484015250505050565b60006200031d6200031784620002a4565b62000285565b9050828152602081018484840111156200033c576200033b6200020a565b5b62000349848285620002da565b509392505050565b600082601f83011262000369576200036862000205565b5b81516200037b84826020860162000306565b91505092915050565b600080600080600060a08688031215620003a357620003a2620001c0565b5b6000620003b388828901620001ee565b9550506020620003c688828901620001ee565b945050604086015167ffffffffffffffff811115620003ea57620003e9620001c5565b5b620003f88882890162000351565b935050606086015167ffffffffffffffff8111156200041c576200041b620001c5565b5b6200042a8882890162000351565b925050608086015167ffffffffffffffff8111156200044e576200044d620001c5565b5b6200045c8882890162000351565b9150509295509295909350565b600081519050919050565b7f4e487b7100000000000000000000000000000000000000000000000000000000600052602260045260246000fd5b60006002820490506001821680620004bc57607f821691505b602082108103620004d257620004d162000474565b5b50919050565b60008190508160005260206000209050919050565b60006020601f8301049050919050565b600082821b905092915050565b6000600883026200053c7fffffffffffffffffffffffffffffffffffffffffffffffffffffffffffffffff82620004fd565b620005488683620004fd565b95508019841693508086168417925050509392505050565b6000819050919050565b60006200058b620005856200057f84620001ca565b62000560565b620001ca565b9050919050565b6000819050919050565b620005a7836200056a565b620005bf620005b68262000592565b8484546200050a565b825550505050565b600090565b620005d6620005c7565b620005e38184846200059c565b505050565b5b818110156200060b57620005ff600082620005cc565b600181019050620005e9565b5050565b601f8211156200065a576200062481620004d8565b6200062f84620004ed565b810160208510156200063f578190505b620006576200064e85620004ed565b830182620005e8565b50505b505050565b600082821c905092915050565b60006200067f600019846008026200065f565b1980831691505092915050565b60006200069a83836200066c565b9150826002028217905092915050565b620006b58262000469565b67ffffffffffffffff811115620006d157620006d062000220565b5b620006dd8254620004a3565b620006ea8282856200060f565b600060209050601f8311600181146200072257600084156200070d578287015190505b6200071985826200068c565b86555062000789565b601f1984166200073286620004d8565b60005b828110156200075c5784890151825560018201915060208501945060208101905062000735565b868310156200077c578489015162000778601f8916826200066c565b8355505b6001600288020188555050505b505050505050565b7f4e487b7100000000000000000000000000000000000000000000000000000000600052602160045260246000fd5b620007cb81620001ca565b82525050565b600082825260208201905092915050565b60008154620007f181620004a3565b620007fd8186620007d1565b945060018216600081146200081b5760018114620008325762000869565b60ff19831686528115156020028601935062000869565b6200083d85620004d8565b60005b83811015620008615781548189015260018201915060208101905062000840565b808801955050505b50505092915050565b6000606082019050620008896000830186620007c0565b620008986020830185620007c0565b8181036040830152620008ac8184620007e2565b9050949350505050565b61241780620008c66000396000f3fe60806040526004361061014a5760003560e01c80639025e64c116100b6578063d24126d91161006f578063d24126d91461041a578063dca6f02114610445578063e0626f7e14610470578063e8d13aa214610499578063f138eb76146104c4578063f39a645f146104ef5761014a565b80639025e64c1461033b578063aa8c217c14610366578063c7c4ff4614610391578063cf09e0d0146103bc578063cf51b45d146103e7578063d0e30db0146104105761014a565b806329dcb0cf1161010857806329dcb0cf1461023957806345d30a17146102645780634a79d50c1461028f5780634e9e8e73146102ba5780637284e416146102e55780637bf6c104146103105761014a565b806283a49a1461014f57806302d05d3f1461017857806308f7a6cc146101a35780630b4f3f3d146101ce5780631b393b9a146101f7578063200d2ed21461020e575b600080fd5b34801561015b57600080fd5b5061017660048036038101906101719190611808565b61051a565b005b34801561018457600080fd5b5061018d6106e9565b60405161019a91906118a5565b60405180910390f35b3480156101af57600080fd5b506101b861070d565b6040516101c5919061193f565b60405180910390f35b3480156101da57600080fd5b506101f560048036038101906101f09190611961565b61079b565b005b34801561020357600080fd5b5061020c61091b565b005b34801561021a57600080fd5b50610223610b35565b6040516102309190611a21565b60405180910390f35b34801561024557600080fd5b5061024e610b48565b60405161025b9190611a4b565b60405180910390f35b34801561027057600080fd5b50610279610b4e565b6040516102869190611a4b565b60405180910390f35b34801561029b57600080fd5b506102a4610b54565b6040516102b1919061193f565b60405180910390f35b3480156102c657600080fd5b506102cf610be2565b6040516102dc9190611a4b565b60405180910390f35b3480156102f157600080fd5b506102fa610be8565b604051610307919061193f565b60405180910390f35b34801561031c57600080fd5b50610325610c76565b604051610332919061193f565b60405180910390f35b34801561034757600080fd5b50610350610d04565b60405161035d919061193f565b60405180910390f35b34801561037257600080fd5b5061037b610d92565b6040516103889190611a4b565b60405180910390f35b34801561039d57600080fd5b506103a6610d98565b6040516103b391906118a5565b60405180910390f35b3480156103c857600080fd5b506103d1610dbe565b6040516103de9190611a4b565b60405180910390f35b3480156103f357600080fd5b5061040e60048036038101906104099190611a66565b610dc4565b005b6104186110b2565b005b34801561042657600080fd5b5061042f6112e4565b60405161043c9190611a4b565b60405180910390f35b34801561045157600080fd5b5061045a6112ea565b604051610467919061193f565b60405180910390f35b34801561047c57600080fd5b5061049760048036038101906104929190611a66565b611378565b005b3480156104a557600080fd5b506104ae611666565b6040516104bb9190611a4b565b60405180910390f35b3480156104d057600080fd5b506104d961166c565b6040516104e69190611a4b565b60405180910390f35b3480156104fb57600080fd5b50610504611672565b6040516105119190611a4b565b60405180910390f35b60008054906101000a900473ffffffffffffffffffffffffffffffffffffffff1673ffffffffffffffffffffffffffffffffffffffff163373ffffffffffffffffffffffffffffffffffffffff16146105a8576040517f08c379a000000000000000000000000000000000000000000000000000000000815260040161059f90611b34565b60405180910390fd5b600160048111156105bc576105bb6119aa565b5b600760009054906101000a900460ff1660048111156105de576105dd6119aa565b5b1461061e576040517f08c379a000000000000000000000000000000000000000000000000000000000815260040161061590611bc6565b60405180910390fd5b600254811115610663576040517f08c379a000000000000000000000000000000000000000000000000000000000815260040161065a90611c58565b60405180910390fd5b81600f90816106729190611e84565b5080600e819055506003600760006101000a81548160ff021916908360048111156106a05761069f6119aa565b5b021790555042600c819055507fd39acadd92ffe12e80cc94b335d7d7ce0477792b7b6c1762457b543d2bfa6bc482826040516106dd929190611f56565b60405180910390a15050565b60008054906101000a900473ffffffffffffffffffffffffffffffffffffffff1681565b6011805461071a90611ca7565b80601f016020809104026020016040519081016040528092919081815260200182805461074690611ca7565b80156107935780601f1061076857610100808354040283529160200191610793565b820191906000526020600020905b81548152906001019060200180831161077657829003601f168201915b505050505081565b60008054906101000a900473ffffffffffffffffffffffffffffffffffffffff1673ffffffffffffffffffffffffffffffffffffffff163373ffffffffffffffffffffffffffffffffffffffff1614610829576040517f08c379a000000000000000000000000000000000000000000000000000000000815260040161082090611b34565b60405180910390fd5b6000600481111561083d5761083c6119aa565b5b600760009054906101000a900460ff16600481111561085f5761085e6119aa565b5b1461089f576040517f08c379a000000000000000000000000000000000000000000000000000000000815260040161089690611ff8565b60405180910390fd5b80601190816108ae9190611e84565b506004600760006101000a81548160ff021916908360048111156108d5576108d46119aa565b5b021790555042600b819055507f8009d504433fdbb6cb2243ee8e8b214943dacb3ff92bf1a16fc9a64f73a465e081604051610910919061193f565b60405180910390a150565b6001600481111561092f5761092e6119aa565b5b600760009054906101000a900460ff166004811115610951576109506119aa565b5b14610991576040517f08c379a000000000000000000000000000000000000000000000000000000000815260040161098890612064565b60405180910390fd5b6003544210156109d6576040517f08c379a00000000000000000000000000000000000000000000000000000000081526004016109cd906120d0565b60405180910390fd5b600254600d819055506040518060400160405280602081526020017f456d657267656e63792072656c6561736520616674657220646561646c696e6581525060109081610a239190611e84565b506002600760006101000a81548160ff02191690836004811115610a4a57610a496119aa565b5b021790555042600a81905550600160009054906101000a900473ffffffffffffffffffffffffffffffffffffffff1673ffffffffffffffffffffffffffffffffffffffff166108fc6002549081150290604051600060405180830381858888f19350505050158015610ac0573d6000803e3d6000fd5b50600160009054906101000a900473ffffffffffffffffffffffffffffffffffffffff1673ffffffffffffffffffffffffffffffffffffffff167f221c08a06b07a64803b3787861a3f276212fcccb51c2e6234077a9b8cb13047a600254604051610b2b9190611a4b565b60405180910390a2565b600760009054906101000a900460ff1681565b60035481565b600d5481565b60048054610b6190611ca7565b80601f0160208091040260200160405190810160405280929190818152602001828054610b8d90611ca7565b8015610bda5780601f10610baf57610100808354040283529160200191610bda565b820191906000526020600020905b815481529060010190602001808311610bbd57829003601f168201915b505050505081565b600e5481565b60058054610bf590611ca7565b80601f0160208091040260200160405190810160405280929190818152602001828054610c2190611ca7565b8015610c6e5780601f10610c4357610100808354040283529160200191610c6e565b820191906000526020600020905b815481529060010190602001808311610c5157829003601f168201915b505050505081565b600f8054610c8390611ca7565b80601f0160208091040260200160405190810160405280929190818152602001828054610caf90611ca7565b8015610cfc5780601f10610cd157610100808354040283529160200191610cfc565b820191906000526020600020905b815481529060010190602001808311610cdf57829003601f168201915b505050505081565b60068054610d1190611ca7565b80601f0160208091040260200160405190810160405280929190818152602001828054610d3d90611ca7565b8015610d8a5780601f10610d5f57610100808354040283529160200191610d8a565b820191906000526020600020905b815481529060010190602001808311610d6d57829003601f168201915b505050505081565b60025481565b600160009054906101000a900473ffffffffffffffffffffffffffffffffffffffff1681565b60085481565b60008054906101000a900473ffffffffffffffffffffffffffffffffffffffff1673ffffffffffffffffffffffffffffffffffffffff163373ffffffffffffffffffffffffffffffffffffffff1614610e52576040517f08c379a0000000000000000000000000000000000000000000000000000000008152600401610e4990611b34565b60405180910390fd5b60036004811115610e6657610e656119aa565b5b600760009054906101000a900460ff166004811115610e8857610e876119aa565b5b14610ec8576040517f08c379a0000000000000000000000000000000000000000000000000000000008152600401610ebf9061213c565b60405180910390fd5b600254821115610f0d576040517f08c379a0000000000000000000000000000000000000000000000000000000008152600401610f04906121ce565b60405180910390fd5b81600d819055508060109081610f239190611e84565b506002600760006101000a81548160ff02191690836004811115610f4a57610f496119aa565b5b021790555042600a81905550600160009054906101000a900473ffffffffffffffffffffffffffffffffffffffff1673ffffffffffffffffffffffffffffffffffffffff166108fc839081150290604051600060405180830381858888f19350505050158015610fbe573d6000803e3d6000fd5b5060025482101561103e5760008054906101000a900473ffffffffffffffffffffffffffffffffffffffff1673ffffffffffffffffffffffffffffffffffffffff166108fc83600254611011919061221d565b9081150290604051600060405180830381858888f1935050505015801561103c573d6000803e3d6000fd5b505b600160009054906101000a900473ffffffffffffffffffffffffffffffffffffffff1673ffffffffffffffffffffffffffffffffffffffff167f221c08a06b07a64803b3787861a3f276212fcccb51c2e6234077a9b8cb13047a836040516110a69190611a4b565b60405180910390a25050565b600060048111156110c6576110c56119aa565b5b600760009054906101000a900460ff1660048111156110e8576110e76119aa565b5b14611128576040517f08c379a000000000000000000000000000000000000000000000000000000000815260040161111f906122c3565b60405180910390fd5b600254341461116c576040517f08c379a00000000000000000000000000000000000000000000000000000000081526004016111639061232f565b60405180910390fd5b600073ffffffffffffffffffffffffffffffffffffffff16600160009054906101000a900473ffffffffffffffffffffffffffffffffffffffff1673ffffffffffffffffffffffffffffffffffffffff16146111fd576040517f08c379a00000000000000000000000000000000000000000000000000000000081526004016111f4906123c1565b60405180910390fd5b33600160006101000a81548173ffffffffffffffffffffffffffffffffffffffff021916908373ffffffffffffffffffffffffffffffffffffffff1602179055506001600760006101000a81548160ff02191690836004811115611264576112636119aa565b5b021790555042600981905550600160009054906101000a900473ffffffffffffffffffffffffffffffffffffffff1673ffffffffffffffffffffffffffffffffffffffff167f06d8a29ae24dbad164a6b2b976290f19f59c7abd804e6c0a4e47931b787265746002546040516112da9190611a4b565b60405180910390a2565b600c5481565b601080546112f790611ca7565b80601f016020809104026020016040519081016040528092919081815260200182805461132390611ca7565b80156113705780601f1061134557610100808354040283529160200191611370565b820191906000526020600020905b81548152906001019060200180831161135357829003601f168201915b505050505081565b60008054906101000a900473ffffffffffffffffffffffffffffffffffffffff1673ffffffffffffffffffffffffffffffffffffffff163373ffffffffffffffffffffffffffffffffffffffff1614611406576040517f08c379a00000000000000000000000000000000000000000000000000000000081526004016113fd90611b34565b60405180910390fd5b6001600481111561141a576114196119aa565b5b600760009054906101000a900460ff16600481111561143c5761143b6119aa565b5b1461147c576040517f08c379a000000000000000000000000000000000000000000000000000000000815260040161147390612064565b60405180910390fd5b6002548211156114c1576040517f08c379a00000000000000000000000000000000000000000000000000000000081526004016114b8906121ce565b60405180910390fd5b81600d8190555080601090816114d79190611e84565b506002600760006101000a81548160ff021916908360048111156114fe576114fd6119aa565b5b021790555042600a81905550600160009054906101000a900473ffffffffffffffffffffffffffffffffffffffff1673ffffffffffffffffffffffffffffffffffffffff166108fc839081150290604051600060405180830381858888f19350505050158015611572573d6000803e3d6000fd5b506002548210156115f25760008054906101000a900473ffffffffffffffffffffffffffffffffffffffff1673ffffffffffffffffffffffffffffffffffffffff166108fc836002546115c5919061221d565b9081150290604051600060405180830381858888f193505050501580156115f0573d6000803e3d6000fd5b505b600160009054906101000a900473ffffffffffffffffffffffffffffffffffffffff1673ffffffffffffffffffffffffffffffffffffffff167f221c08a06b07a64803b3787861a3f276212fcccb51c2e6234077a9b8cb13047a8360405161165a9190611a4b565b60405180910390a25050565b600a5481565b60095481565b600b5481565b6000604051905090565b600080fd5b600080fd5b600080fd5b600080fd5b6000601f19601f8301169050919050565b7f4e487b7100000000000000000000000000000000000000000000000000000000600052604160045260246000fd5b6116df82611696565b810181811067ffffffffffffffff821117156116fe576116fd6116a7565b5b80604052505050565b6000611711611678565b905061171d82826116d6565b919050565b600067ffffffffffffffff82111561173d5761173c6116a7565b5b61174682611696565b9050602081019050919050565b82818337600083830152505050565b600061177561177084611722565b611707565b90508281526020810184848401111561179157611790611691565b5b61179c848285611753565b509392505050565b600082601f8301126117b9576117b861168c565b5b81356117c9848260208601611762565b91505092915050565b6000819050919050565b6117e5816117d2565b81146117f057600080fd5b50565b600081359050611802816117dc565b92915050565b6000806040838503121561181f5761181e611682565b5b600083013567ffffffffffffffff81111561183d5761183c611687565b5b611849858286016117a4565b925050602061185a858286016117f3565b9150509250929050565b600073ffffffffffffffffffffffffffffffffffffffff82169050919050565b600061188f82611864565b9050919050565b61189f81611884565b82525050565b60006020820190506118ba6000830184611896565b92915050565b600081519050919050565b600082825260208201905092915050565b60005b838110156118fa5780820151818401526020810190506118df565b60008484015250505050565b6000611911826118c0565b61191b81856118cb565b935061192b8185602086016118dc565b61193481611696565b840191505092915050565b600060208201905081810360008301526119598184611906565b905092915050565b60006020828403121561197757611976611682565b5b600082013567ffffffffffffffff81111561199557611994611687565b5b6119a1848285016117a4565b91505092915050565b7f4e487b7100000000000000000000000000000000000000000000000000000000600052602160045260246000fd5b600581106119ea576119e96119aa565b5b50565b60008190506119fb826119d9565b919050565b6000611a0b826119ed565b9050919050565b611a1b81611a00565b82525050565b6000602082019050611a366000830184611a12565b92915050565b611a45816117d2565b82525050565b6000602082019050611a606000830184611a3c565b92915050565b60008060408385031215611a7d57611a7c611682565b5b6000611a8b858286016117f3565b925050602083013567ffffffffffffffff811115611aac57611aab611687565b5b611ab8858286016117a4565b9150509250929050565b7f4f6e6c792063726561746f722063616e2063616c6c20746869732066756e637460008201527f696f6e0000000000000000000000000000000000000000000000000000000000602082015250565b6000611b1e6023836118cb565b9150611b2982611ac2565b604082019050919050565b60006020820190508181036000830152611b4d81611b11565b9050919050565b7f43616e206f6e6c7920646973707574652066696c6c65642061677265656d656e60008201527f7473000000000000000000000000000000000000000000000000000000000000602082015250565b6000611bb06022836118cb565b9150611bbb82611b54565b604082019050919050565b60006020820190508181036000830152611bdf81611ba3565b9050919050565b7f50726f706f73656420616d6f756e742063616e6e6f742065786365656420646560008201527f706f736974656420616d6f756e74000000000000000000000000000000000000602082015250565b6000611c42602e836118cb565b9150611c4d82611be6565b604082019050919050565b60006020820190508181036000830152611c7181611c35565b9050919050565b7f4e487b7100000000000000000000000000000000000000000000000000000000600052602260045260246000fd5b60006002820490506001821680611cbf57607f821691505b602082108103611cd257611cd1611c78565b5b50919050565b60008190508160005260206000209050919050565b60006020601f8301049050919050565b600082821b905092915050565b600060088302611d3a7fffffffffffffffffffffffffffffffffffffffffffffffffffffffffffffffff82611cfd565b611d448683611cfd565b95508019841693508086168417925050509392505050565b6000819050919050565b6000611d81611d7c611d77846117d2565b611d5c565b6117d2565b9050919050565b6000819050919050565b611d9b83611d66565b611daf611da782611d88565b848454611d0a565b825550505050565b600090565b611dc4611db7565b611dcf818484611d92565b505050565b5b81811015611df357611de8600082611dbc565b600181019050611dd5565b5050565b601f821115611e3857611e0981611cd8565b611e1284611ced565b81016020851015611e21578190505b611e35611e2d85611ced565b830182611dd4565b50505b505050565b600082821c905092915050565b6000611e5b60001984600802611e3d565b1980831691505092915050565b6000611e748383611e4a565b9150826002028217905092915050565b611e8d826118c0565b67ffffffffffffffff811115611ea657611ea56116a7565b5b611eb08254611ca7565b611ebb828285611df7565b600060209050601f831160018114611eee5760008415611edc578287015190505b611ee68582611e68565b865550611f4e565b601f198416611efc86611cd8565b60005b82811015611f2457848901518255600182019150602085019450602081019050611eff565b86831015611f415784890151611f3d601f891682611e4a565b8355505b6001600288020188555050505b505050505050565b60006040820190508181036000830152611f708185611906565b9050611f7f6020830184611a3c565b9392505050565b7f43616e206f6e6c792063616e63656c2070656e64696e672061677265656d656e60008201527f7473000000000000000000000000000000000000000000000000000000000000602082015250565b6000611fe26022836118cb565b9150611fed82611f86565b604082019050919050565b6000602082019050818103600083015261201181611fd5565b9050919050565b7f46756e6473206e6f742066696c6c656400000000000000000000000000000000600082015250565b600061204e6010836118cb565b915061205982612018565b602082019050919050565b6000602082019050818103600083015261207d81612041565b9050919050565b7f446561646c696e65206e6f742072656163686564000000000000000000000000600082015250565b60006120ba6014836118cb565b91506120c582612084565b602082019050919050565b600060208201905081810360008301526120e9816120ad565b9050919050565b7f4e6f206163746976652064697370757465000000000000000000000000000000600082015250565b60006121266011836118cb565b9150612131826120f0565b602082019050919050565b6000602082019050818103600083015261215581612119565b9050919050565b7f43616e6e6f742072656c65617365206d6f7265207468616e206465706f73697460008201527f6564000000000000000000000000000000000000000000000000000000000000602082015250565b60006121b86022836118cb565b91506121c38261215c565b604082019050919050565b600060208201905081810360008301526121e7816121ab565b9050919050565b7f4e487b7100000000000000000000000000000000000000000000000000000000600052601160045260246000fd5b6000612228826117d2565b9150612233836117d2565b925082820390508181111561224b5761224a6121ee565b5b92915050565b7f41677265656d656e74206e6f7420617661696c61626c6520666f72206465706f60008201527f7369740000000000000000000000000000000000000000000000000000000000602082015250565b60006122ad6023836118cb565b91506122b882612251565b604082019050919050565b600060208201905081810360008301526122dc816122a0565b9050919050565b7f496e636f7272656374206465706f73697420616d6f756e740000000000000000600082015250565b60006123196018836118cb565b9150612324826122e3565b602082019050919050565b600060208201905081810360008301526123488161230c565b9050919050565b7f4465706f73697420616c7265616479206d61646520627920736f6d656f6e652060008201527f656c736500000000000000000000000000000000000000000000000000000000602082015250565b60006123ab6024836118cb565b91506123b68261234f565b604082019050919050565b600060208201905081810360008301526123da8161239e565b905091905056fea26469706673582212209b4a2d9f3c0d69ada744a4594af4f3daadb6fa9839bc91823a086fb0216ec04f64736f6c63430008140033",
  "linkReferences": {},
  "deployedLinkReferences": {}
}