{
  "_format": "hh-sol-artifact-1",
  "contractName": "Escrow",
  "sourceName": "contracts/Escrow.sol",
  "abi": [
    {
      "inputs": [
        {
          "internalType": "uint256",
          "name": "_amount",
          "type": "uint256"
        },
        {
          "internalType": "uint256",
          "name": "_deadline",
          "type": "uint256"
        },
        {
          "internalType": "string",
          "name": "_title",
          "type": "string"
        },
        {
          "internalType": "string",
          "name": "_description",
          "type": "string"
        },
        {
          "internalType": "string",
          "name": "_networkId",
          "type": "string"
        },
        {
          "internalType": "address",
          "name": "_tokenAddress",
          "type": "address"
        },
        {
          "internalType": "string",
          "name": "_tokenSymbol",
          "type": "string"
        },
        {
          "internalType": "uint8",
          "name": "_tokenDecimals",
          "type": "uint8"
        }
      ],
      "stateMutability": "nonpayable",
      "type": "constructor"
    },
    {
      "anonymous": false,
      "inputs": [
        {
          "indexed": false,
          "internalType": "string",
          "name": "reason",
          "type": "string"
        }
      ],
      "name": "AgreementCanceled",
      "type": "event"
    },
    {
      "anonymous": false,
      "inputs": [
        {
          "indexed": true,
          "internalType": "address",
          "name": "creator",
          "type": "address"
        },
        {
          "indexed": false,
          "internalType": "uint256",
          "name": "amount",
          "type": "uint256"
        },
        {
          "indexed": false,
          "internalType": "uint256",
          "name": "deadline",
          "type": "uint256"
        },
        {
          "indexed": false,
          "internalType": "string",
          "name": "title",
          "type": "string"
        },
        {
          "indexed": false,
          "internalType": "address",
          "name": "tokenAddress",
          "type": "address"
        },
        {
          "indexed": false,
          "internalType": "string",
          "name": "tokenSymbol",
          "type": "string"
        }
      ],
      "name": "AgreementCreated",
      "type": "event"
    },
    {
      "anonymous": false,
      "inputs": [
        {
          "indexed": false,
          "internalType": "string",
          "name": "reason",
          "type": "string"
        },
        {
          "indexed": false,
          "internalType": "uint256",
          "name": "proposedAmount",
          "type": "uint256"
        }
      ],
      "name": "DisputeOpened",
      "type": "event"
    },
    {
      "anonymous": false,
      "inputs": [
        {
          "indexed": true,
          "internalType": "address",
          "name": "depositor",
          "type": "address"
        },
        {
          "indexed": false,
          "internalType": "uint256",
          "name": "amount",
          "type": "uint256"
        }
      ],
      "name": "FundsFilled",
      "type": "event"
    },
    {
      "anonymous": false,
      "inputs": [
        {
          "indexed": true,
          "internalType": "address",
          "name": "receiver",
          "type": "address"
        },
        {
          "indexed": false,
          "internalType": "uint256",
          "name": "amount",
          "type": "uint256"
        }
      ],
      "name": "FundsReleased",
      "type": "event"
    },
    {
      "inputs": [],
      "name": "amount",
      "outputs": [
        {
          "internalType": "uint256",
          "name": "",
          "type": "uint256"
        }
      ],
      "stateMutability": "view",
      "type": "function"
    },
    {
      "inputs": [
        {
          "internalType": "string",
          "name": "_reason",
          "type": "string"
        }
      ],
      "name": "cancel",
      "outputs": [],
      "stateMutability": "nonpayable",
      "type": "function"
    },
    {
      "inputs": [],
      "name": "cancelReason",
      "outputs": [
        {
          "internalType": "string",
          "name": "",
          "type": "string"
        }
      ],
      "stateMutability": "view",
      "type": "function"
    },
    {
      "inputs": [],
      "name": "canceledAt",
      "outputs": [
        {
          "internalType": "uint256",
          "name": "",
          "type": "uint256"
        }
      ],
      "stateMutability": "view",
      "type": "function"
    },
    {
      "inputs": [],
      "name": "createdAt",
      "outputs": [
        {
          "internalType": "uint256",
          "name": "",
          "type": "uint256"
        }
      ],
      "stateMutability": "view",
      "type": "function"
    },
    {
      "inputs": [],
      "name": "creator",
      "outputs": [
        {
          "internalType": "address",
          "name": "",
          "type": "address"
        }
      ],
      "stateMutability": "view",
      "type": "function"
    },
    {
      "inputs": [],
      "name": "deadline",
      "outputs": [
        {
          "internalType": "uint256",
          "name": "",
          "type": "uint256"
        }
      ],
      "stateMutability": "view",
      "type": "function"
    },
    {
      "inputs": [],
      "name": "deposit",
      "outputs": [],
      "stateMutability": "nonpayable",
      "type": "function"
    },
    {
      "inputs": [],
      "name": "depositor",
      "outputs": [
        {
          "internalType": "address",
          "name": "",
          "type": "address"
        }
      ],
      "stateMutability": "view",
      "type": "function"
    },
    {
      "inputs": [],
      "name": "description",
      "outputs": [
        {
          "internalType": "string",
          "name": "",
          "type": "string"
        }
      ],
      "stateMutability": "view",
      "type": "function"
    },
    {
      "inputs": [],
      "name": "disputeReason",
      "outputs": [
        {
          "internalType": "string",
          "name": "",
          "type": "string"
        }
      ],
      "stateMutability": "view",
      "type": "function"
    },
    {
      "inputs": [],
      "name": "disputedAt",
      "outputs": [
        {
          "internalType": "uint256",
          "name": "",
          "type": "uint256"
        }
      ],
      "stateMutability": "view",
      "type": "function"
    },
    {
      "inputs": [],
      "name": "emergencyRelease",
      "outputs": [],
      "stateMutability": "nonpayable",
      "type": "function"
    },
    {
      "inputs": [],
      "name": "filledAt",
      "outputs": [
        {
          "internalType": "uint256",
          "name": "",
          "type": "uint256"
        }
      ],
      "stateMutability": "view",
      "type": "function"
    },
    {
      "inputs": [],
      "name": "networkId",
      "outputs": [
        {
          "internalType": "string",
          "name": "",
          "type": "string"
        }
      ],
      "stateMutability": "view",
      "type": "function"
    },
    {
      "inputs": [
        {
          "internalType": "string",
          "name": "_reason",
          "type": "string"
        },
        {
          "internalType": "uint256",
          "name": "_proposedAmount",
          "type": "uint256"
        }
      ],
      "name": "openDispute",
      "outputs": [],
      "stateMutability": "nonpayable",
      "type": "function"
    },
    {
      "inputs": [],
      "name": "proposedAmount",
      "outputs": [
        {
          "internalType": "uint256",
          "name": "",
          "type": "uint256"
        }
      ],
      "stateMutability": "view",
      "type": "function"
    },
    {
      "inputs": [
        {
          "internalType": "uint256",
          "name": "_releaseAmount",
          "type": "uint256"
        },
        {
          "internalType": "string",
          "name": "_description",
          "type": "string"
        }
      ],
      "name": "release",
      "outputs": [],
      "stateMutability": "nonpayable",
      "type": "function"
    },
    {
      "inputs": [],
      "name": "releaseDescription",
      "outputs": [
        {
          "internalType": "string",
          "name": "",
          "type": "string"
        }
      ],
      "stateMutability": "view",
      "type": "function"
    },
    {
      "inputs": [],
      "name": "releasedAmount",
      "outputs": [
        {
          "internalType": "uint256",
          "name": "",
          "type": "uint256"
        }
      ],
      "stateMutability": "view",
      "type": "function"
    },
    {
      "inputs": [],
      "name": "releasedAt",
      "outputs": [
        {
          "internalType": "uint256",
          "name": "",
          "type": "uint256"
        }
      ],
      "stateMutability": "view",
      "type": "function"
    },
    {
      "inputs": [
        {
          "internalType": "uint256",
          "name": "_releaseAmount",
          "type": "uint256"
        },
        {
          "internalType": "string",
          "name": "_description",
          "type": "string"
        }
      ],
      "name": "resolveDispute",
      "outputs": [],
      "stateMutability": "nonpayable",
      "type": "function"
    },
    {
      "inputs": [],
      "name": "status",
      "outputs": [
        {
          "internalType": "enum Escrow.Status",
          "name": "",
          "type": "uint8"
        }
      ],
      "stateMutability": "view",
      "type": "function"
    },
    {
      "inputs": [],
      "name": "title",
      "outputs": [
        {
          "internalType": "string",
          "name": "",
          "type": "string"
        }
      ],
      "stateMutability": "view",
      "type": "function"
    },
    {
      "inputs": [],
      "name": "tokenAddress",
      "outputs": [
        {
          "internalType": "address",
          "name": "",
          "type": "address"
        }
      ],
      "stateMutability": "view",
      "type": "function"
    },
    {
      "inputs": [],
      "name": "tokenDecimals",
      "outputs": [
        {
          "internalType": "uint8",
          "name": "",
          "type": "uint8"
        }
      ],
      "stateMutability": "view",
      "type": "function"
    },
    {
      "inputs": [],
      "name": "tokenSymbol",
      "outputs": [
        {
          "internalType": "string",
          "name": "",
          "type": "string"
        }
      ],
      "stateMutability": "view",
      "type": "function"
    }
  ],
  "bytecode": "0x60806040523480156200001157600080fd5b506040516200335a3803806200335a833981810160405281019062000037919062000577565b600073ffffffffffffffffffffffffffffffffffffffff168373ffffffffffffffffffffffffffffffffffffffff1603620000a9576040517f08c379a0000000000000000000000000000000000000000000000000000000008152600401620000a0906200071d565b60405180910390fd5b60008811620000ef576040517f08c379a0000000000000000000000000000000000000000000000000000000008152600401620000e6906200078f565b60405180910390fd5b336000806101000a81548173ffffffffffffffffffffffffffffffffffffffff021916908373ffffffffffffffffffffffffffffffffffffffff1602179055506000600160006101000a81548173ffffffffffffffffffffffffffffffffffffffff021916908373ffffffffffffffffffffffffffffffffffffffff16021790555087600281905550866003819055508560049081620001909190620009f2565b508460059081620001a29190620009f2565b508360069081620001b49190620009f2565b5082600760006101000a81548173ffffffffffffffffffffffffffffffffffffffff021916908373ffffffffffffffffffffffffffffffffffffffff1602179055508160089081620002079190620009f2565b5080600960006101000a81548160ff021916908360ff1602179055506000600960016101000a81548160ff021916908360048111156200024c576200024b62000ad9565b5b021790555042600a8190555060008054906101000a900473ffffffffffffffffffffffffffffffffffffffff1673ffffffffffffffffffffffffffffffffffffffff167f21db0a8e659c98f729188cc7ea1acb72acd3ed7283d62680b8fdb6cb7b1289c06002546003546004600760009054906101000a900473ffffffffffffffffffffffffffffffffffffffff166008604051620002f095949392919062000bba565b60405180910390a2505050505050505062000c25565b6000604051905090565b600080fd5b600080fd5b6000819050919050565b6200032f816200031a565b81146200033b57600080fd5b50565b6000815190506200034f8162000324565b92915050565b600080fd5b600080fd5b6000601f19601f8301169050919050565b7f4e487b7100000000000000000000000000000000000000000000000000000000600052604160045260246000fd5b620003aa826200035f565b810181811067ffffffffffffffff82111715620003cc57620003cb62000370565b5b80604052505050565b6000620003e162000306565b9050620003ef82826200039f565b919050565b600067ffffffffffffffff82111562000412576200041162000370565b5b6200041d826200035f565b9050602081019050919050565b60005b838110156200044a5780820151818401526020810190506200042d565b60008484015250505050565b60006200046d6200046784620003f4565b620003d5565b9050828152602081018484840111156200048c576200048b6200035a565b5b620004998482856200042a565b509392505050565b600082601f830112620004b957620004b862000355565b5b8151620004cb84826020860162000456565b91505092915050565b600073ffffffffffffffffffffffffffffffffffffffff82169050919050565b60006200050182620004d4565b9050919050565b6200051381620004f4565b81146200051f57600080fd5b50565b600081519050620005338162000508565b92915050565b600060ff82169050919050565b620005518162000539565b81146200055d57600080fd5b50565b600081519050620005718162000546565b92915050565b600080600080600080600080610100898b0312156200059b576200059a62000310565b5b6000620005ab8b828c016200033e565b9850506020620005be8b828c016200033e565b975050604089015167ffffffffffffffff811115620005e257620005e162000315565b5b620005f08b828c01620004a1565b965050606089015167ffffffffffffffff81111562000614576200061362000315565b5b620006228b828c01620004a1565b955050608089015167ffffffffffffffff81111562000646576200064562000315565b5b620006548b828c01620004a1565b94505060a0620006678b828c0162000522565b93505060c089015167ffffffffffffffff8111156200068b576200068a62000315565b5b620006998b828c01620004a1565b92505060e0620006ac8b828c0162000560565b9150509295985092959890939650565b600082825260208201905092915050565b7f546f6b656e206164647265737320697320726571756972656400000000000000600082015250565b600062000705601983620006bc565b91506200071282620006cd565b602082019050919050565b600060208201905081810360008301526200073881620006f6565b9050919050565b7f416d6f756e74206d7573742062652067726561746572207468616e2030000000600082015250565b600062000777601d83620006bc565b915062000784826200073f565b602082019050919050565b60006020820190508181036000830152620007aa8162000768565b9050919050565b600081519050919050565b7f4e487b7100000000000000000000000000000000000000000000000000000000600052602260045260246000fd5b600060028204905060018216806200080457607f821691505b6020821081036200081a5762000819620007bc565b5b50919050565b60008190508160005260206000209050919050565b60006020601f8301049050919050565b600082821b905092915050565b600060088302620008847fffffffffffffffffffffffffffffffffffffffffffffffffffffffffffffffff8262000845565b62000890868362000845565b95508019841693508086168417925050509392505050565b6000819050919050565b6000620008d3620008cd620008c7846200031a565b620008a8565b6200031a565b9050919050565b6000819050919050565b620008ef83620008b2565b62000907620008fe82620008da565b84845462000852565b825550505050565b600090565b6200091e6200090f565b6200092b818484620008e4565b505050565b5b8181101562000953576200094760008262000914565b60018101905062000931565b5050565b601f821115620009a2576200096c8162000820565b620009778462000835565b8101602085101562000987578190505b6200099f620009968562000835565b83018262000930565b50505b505050565b600082821c905092915050565b6000620009c760001984600802620009a7565b1980831691505092915050565b6000620009e28383620009b4565b9150826002028217905092915050565b620009fd82620007b1565b67ffffffffffffffff81111562000a195762000a1862000370565b5b62000a258254620007eb565b62000a3282828562000957565b600060209050601f83116001811462000a6a576000841562000a55578287015190505b62000a618582620009d4565b86555062000ad1565b601f19841662000a7a8662000820565b60005b8281101562000aa45784890151825560018201915060208501945060208101905062000a7d565b8683101562000ac4578489015162000ac0601f891682620009b4565b8355505b6001600288020188555050505b505050505050565b7f4e487b7100000000000000000000000000000000000000000000000000000000600052602160045260246000fd5b62000b13816200031a565b82525050565b6000815462000b2881620007eb565b62000b348186620006bc565b9450600182166000811462000b52576001811462000b695762000ba0565b60ff19831686528115156020028601935062000ba0565b62000b748562000820565b60005b8381101562000b985781548189015260018201915060208101905062000b77565b808801955050505b50505092915050565b62000bb481620004f4565b82525050565b600060a08201905062000bd1600083018862000b08565b62000be0602083018762000b08565b818103604083015262000bf4818662000b19565b905062000c05606083018562000ba9565b818103608083015262000c19818462000b19565b90509695505050505050565b6127258062000c356000396000f3fe608060405234801561001057600080fd5b50600436106101a85760003560e01c80637bf6c104116100f9578063d0e30db011610097578063e0626f7e11610071578063e0626f7e14610431578063e8d13aa21461044d578063f138eb761461046b578063f39a645f14610489576101a8565b8063d0e30db0146103eb578063d24126d9146103f5578063dca6f02114610413576101a8565b8063aa8c217c116100d3578063aa8c217c14610375578063c7c4ff4614610393578063cf09e0d0146103b1578063cf51b45d146103cf576101a8565b80637bf6c1041461031b5780639025e64c146103395780639d76ea5814610357576101a8565b806329dcb0cf116101665780634a79d50c116101405780634a79d50c146102a35780634e9e8e73146102c15780637284e416146102df5780637b61c320146102fd576101a8565b806329dcb0cf146102495780633b97e8561461026757806345d30a1714610285576101a8565b806283a49a146101ad57806302d05d3f146101c957806308f7a6cc146101e75780630b4f3f3d146102055780631b393b9a14610221578063200d2ed21461022b575b600080fd5b6101c760048036038101906101c29190611852565b6104a7565b005b6101d1610676565b6040516101de91906118ef565b60405180910390f35b6101ef61069a565b6040516101fc9190611989565b60405180910390f35b61021f600480360381019061021a91906119ab565b610728565b005b6102296108a8565b005b6102336109a6565b6040516102409190611a6b565b60405180910390f35b6102516109b9565b60405161025e9190611a95565b60405180910390f35b61026f6109bf565b60405161027c9190611acc565b60405180910390f35b61028d6109d2565b60405161029a9190611a95565b60405180910390f35b6102ab6109d8565b6040516102b89190611989565b60405180910390f35b6102c9610a66565b6040516102d69190611a95565b60405180910390f35b6102e7610a6c565b6040516102f49190611989565b60405180910390f35b610305610afa565b6040516103129190611989565b60405180910390f35b610323610b88565b6040516103309190611989565b60405180910390f35b610341610c16565b60405161034e9190611989565b60405180910390f35b61035f610ca4565b60405161036c91906118ef565b60405180910390f35b61037d610cca565b60405161038a9190611a95565b60405180910390f35b61039b610cd0565b6040516103a891906118ef565b60405180910390f35b6103b9610cf6565b6040516103c69190611a95565b60405180910390f35b6103e960048036038101906103e49190611ae7565b610cfc565b005b6103f3610e0e565b005b6103fd61102c565b60405161040a9190611a95565b60405180910390f35b61041b611032565b6040516104289190611989565b60405180910390f35b61044b60048036038101906104469190611ae7565b6110c0565b005b6104556111d2565b6040516104629190611a95565b60405180910390f35b6104736111d8565b6040516104809190611a95565b60405180910390f35b6104916111de565b60405161049e9190611a95565b60405180910390f35b60008054906101000a900473ffffffffffffffffffffffffffffffffffffffff1673ffffffffffffffffffffffffffffffffffffffff163373ffffffffffffffffffffffffffffffffffffffff1614610535576040517f08c379a000000000000000000000000000000000000000000000000000000000815260040161052c90611bb5565b60405180910390fd5b60016004811115610549576105486119f4565b5b600960019054906101000a900460ff16600481111561056b5761056a6119f4565b5b146105ab576040517f08c379a00000000000000000000000000000000000000000000000000000000081526004016105a290611c47565b60405180910390fd5b6002548111156105f0576040517f08c379a00000000000000000000000000000000000000000000000000000000081526004016105e790611cd9565b60405180910390fd5b81601190816105ff9190611f05565b50806010819055506003600960016101000a81548160ff0219169083600481111561062d5761062c6119f4565b5b021790555042600e819055507fd39acadd92ffe12e80cc94b335d7d7ce0477792b7b6c1762457b543d2bfa6bc4828260405161066a929190611fd7565b60405180910390a15050565b60008054906101000a900473ffffffffffffffffffffffffffffffffffffffff1681565b601380546106a790611d28565b80601f01602080910402602001604051908101604052809291908181526020018280546106d390611d28565b80156107205780601f106106f557610100808354040283529160200191610720565b820191906000526020600020905b81548152906001019060200180831161070357829003601f168201915b505050505081565b60008054906101000a900473ffffffffffffffffffffffffffffffffffffffff1673ffffffffffffffffffffffffffffffffffffffff163373ffffffffffffffffffffffffffffffffffffffff16146107b6576040517f08c379a00000000000000000000000000000000000000000000000000000000081526004016107ad90611bb5565b60405180910390fd5b600060048111156107ca576107c96119f4565b5b600960019054906101000a900460ff1660048111156107ec576107eb6119f4565b5b1461082c576040517f08c379a000000000000000000000000000000000000000000000000000000000815260040161082390612079565b60405180910390fd5b806013908161083b9190611f05565b506004600960016101000a81548160ff02191690836004811115610862576108616119f4565b5b021790555042600d819055507f8009d504433fdbb6cb2243ee8e8b214943dacb3ff92bf1a16fc9a64f73a465e08160405161089d9190611989565b60405180910390a150565b600160048111156108bc576108bb6119f4565b5b600960019054906101000a900460ff1660048111156108de576108dd6119f4565b5b1461091e576040517f08c379a0000000000000000000000000000000000000000000000000000000008152600401610915906120e5565b60405180910390fd5b600354421015610963576040517f08c379a000000000000000000000000000000000000000000000000000000000815260040161095a90612151565b60405180910390fd5b6109a46002546040518060400160405280602081526020017f456d657267656e63792072656c6561736520616674657220646561646c696e658152506111e4565b565b600960019054906101000a900460ff1681565b60035481565b600960009054906101000a900460ff1681565b600f5481565b600480546109e590611d28565b80601f0160208091040260200160405190810160405280929190818152602001828054610a1190611d28565b8015610a5e5780601f10610a3357610100808354040283529160200191610a5e565b820191906000526020600020905b815481529060010190602001808311610a4157829003601f168201915b505050505081565b60105481565b60058054610a7990611d28565b80601f0160208091040260200160405190810160405280929190818152602001828054610aa590611d28565b8015610af25780601f10610ac757610100808354040283529160200191610af2565b820191906000526020600020905b815481529060010190602001808311610ad557829003601f168201915b505050505081565b60088054610b0790611d28565b80601f0160208091040260200160405190810160405280929190818152602001828054610b3390611d28565b8015610b805780601f10610b5557610100808354040283529160200191610b80565b820191906000526020600020905b815481529060010190602001808311610b6357829003601f168201915b505050505081565b60118054610b9590611d28565b80601f0160208091040260200160405190810160405280929190818152602001828054610bc190611d28565b8015610c0e5780601f10610be357610100808354040283529160200191610c0e565b820191906000526020600020905b815481529060010190602001808311610bf157829003601f168201915b505050505081565b60068054610c2390611d28565b80601f0160208091040260200160405190810160405280929190818152602001828054610c4f90611d28565b8015610c9c5780601f10610c7157610100808354040283529160200191610c9c565b820191906000526020600020905b815481529060010190602001808311610c7f57829003601f168201915b505050505081565b600760009054906101000a900473ffffffffffffffffffffffffffffffffffffffff1681565b60025481565b600160009054906101000a900473ffffffffffffffffffffffffffffffffffffffff1681565b600a5481565b60008054906101000a900473ffffffffffffffffffffffffffffffffffffffff1673ffffffffffffffffffffffffffffffffffffffff163373ffffffffffffffffffffffffffffffffffffffff1614610d8a576040517f08c379a0000000000000000000000000000000000000000000000000000000008152600401610d8190611bb5565b60405180910390fd5b60036004811115610d9e57610d9d6119f4565b5b600960019054906101000a900460ff166004811115610dc057610dbf6119f4565b5b14610e00576040517f08c379a0000000000000000000000000000000000000000000000000000000008152600401610df7906121bd565b60405180910390fd5b610e0a82826111e4565b5050565b60006004811115610e2257610e216119f4565b5b600960019054906101000a900460ff166004811115610e4457610e436119f4565b5b14610e84576040517f08c379a0000000000000000000000000000000000000000000000000000000008152600401610e7b9061224f565b60405180910390fd5b600073ffffffffffffffffffffffffffffffffffffffff16600160009054906101000a900473ffffffffffffffffffffffffffffffffffffffff1673ffffffffffffffffffffffffffffffffffffffff1614610f15576040517f08c379a0000000000000000000000000000000000000000000000000000000008152600401610f0c906122e1565b60405180910390fd5b33600160006101000a81548173ffffffffffffffffffffffffffffffffffffffff021916908373ffffffffffffffffffffffffffffffffffffffff1602179055506001600960016101000a81548160ff02191690836004811115610f7c57610f7b6119f4565b5b021790555042600b81905550610fb8600760009054906101000a900473ffffffffffffffffffffffffffffffffffffffff1633306002546113a9565b600160009054906101000a900473ffffffffffffffffffffffffffffffffffffffff1673ffffffffffffffffffffffffffffffffffffffff167f06d8a29ae24dbad164a6b2b976290f19f59c7abd804e6c0a4e47931b787265746002546040516110229190611a95565b60405180910390a2565b600e5481565b6012805461103f90611d28565b80601f016020809104026020016040519081016040528092919081815260200182805461106b90611d28565b80156110b85780601f1061108d576101008083540402835291602001916110b8565b820191906000526020600020905b81548152906001019060200180831161109b57829003601f168201915b505050505081565b60008054906101000a900473ffffffffffffffffffffffffffffffffffffffff1673ffffffffffffffffffffffffffffffffffffffff163373ffffffffffffffffffffffffffffffffffffffff161461114e576040517f08c379a000000000000000000000000000000000000000000000000000000000815260040161114590611bb5565b60405180910390fd5b60016004811115611162576111616119f4565b5b600960019054906101000a900460ff166004811115611184576111836119f4565b5b146111c4576040517f08c379a00000000000000000000000000000000000000000000000000000000081526004016111bb906120e5565b60405180910390fd5b6111ce82826111e4565b5050565b600c5481565b600b5481565b600d5481565b600254821115611229576040517f08c379a000000000000000000000000000000000000000000000000000000000815260040161122090612373565b60405180910390fd5b81600f81905550806012908161123f9190611f05565b506002600960016101000a81548160ff02191690836004811115611266576112656119f4565b5b021790555042600c8190555060008211156112cb576112ca600760009054906101000a900473ffffffffffffffffffffffffffffffffffffffff16600160009054906101000a900473ffffffffffffffffffffffffffffffffffffffff1684611537565b5b6000826002546112db91906123c2565b9050600081111561133457611333600760009054906101000a900473ffffffffffffffffffffffffffffffffffffffff1660008054906101000a900473ffffffffffffffffffffffffffffffffffffffff1683611537565b5b600160009054906101000a900473ffffffffffffffffffffffffffffffffffffffff1673ffffffffffffffffffffffffffffffffffffffff167f221c08a06b07a64803b3787861a3f276212fcccb51c2e6234077a9b8cb13047a8460405161139c9190611a95565b60405180910390a2505050565b6000808573ffffffffffffffffffffffffffffffffffffffff166323b872dd60e01b8686866040516024016113e0939291906123f6565b604051602081830303815290604052907bffffffffffffffffffffffffffffffffffffffffffffffffffffffff19166020820180517bffffffffffffffffffffffffffffffffffffffffffffffffffffffff838183161783525050505060405161144a9190612474565b6000604051808303816000865af19150503d8060008114611487576040519150601f19603f3d011682016040523d82523d6000602084013e61148c565b606091505b5091509150816114d1576040517f08c379a00000000000000000000000000000000000000000000000000000000081526004016114c8906124d7565b60405180910390fd5b60008151111561152f57808060200190518101906114ef919061252f565b61152e576040517f08c379a0000000000000000000000000000000000000000000000000000000008152600401611525906125ce565b60405180910390fd5b5b505050505050565b6000808473ffffffffffffffffffffffffffffffffffffffff1663a9059cbb60e01b858560405160240161156c9291906125ee565b604051602081830303815290604052907bffffffffffffffffffffffffffffffffffffffffffffffffffffffff19166020820180517bffffffffffffffffffffffffffffffffffffffffffffffffffffffff83818316178352505050506040516115d69190612474565b6000604051808303816000865af19150503d8060008114611613576040519150601f19603f3d011682016040523d82523d6000602084013e611618565b606091505b50915091508161165d576040517f08c379a000000000000000000000000000000000000000000000000000000000815260040161165490612663565b60405180910390fd5b6000815111156116bb578080602001905181019061167b919061252f565b6116ba576040517f08c379a00000000000000000000000000000000000000000000000000000000081526004016116b1906126cf565b60405180910390fd5b5b5050505050565b6000604051905090565b600080fd5b600080fd5b600080fd5b600080fd5b6000601f19601f8301169050919050565b7f4e487b7100000000000000000000000000000000000000000000000000000000600052604160045260246000fd5b611729826116e0565b810181811067ffffffffffffffff82111715611748576117476116f1565b5b80604052505050565b600061175b6116c2565b90506117678282611720565b919050565b600067ffffffffffffffff821115611787576117866116f1565b5b611790826116e0565b9050602081019050919050565b82818337600083830152505050565b60006117bf6117ba8461176c565b611751565b9050828152602081018484840111156117db576117da6116db565b5b6117e684828561179d565b509392505050565b600082601f830112611803576118026116d6565b5b81356118138482602086016117ac565b91505092915050565b6000819050919050565b61182f8161181c565b811461183a57600080fd5b50565b60008135905061184c81611826565b92915050565b60008060408385031215611869576118686116cc565b5b600083013567ffffffffffffffff811115611887576118866116d1565b5b611893858286016117ee565b92505060206118a48582860161183d565b9150509250929050565b600073ffffffffffffffffffffffffffffffffffffffff82169050919050565b60006118d9826118ae565b9050919050565b6118e9816118ce565b82525050565b600060208201905061190460008301846118e0565b92915050565b600081519050919050565b600082825260208201905092915050565b60005b83811015611944578082015181840152602081019050611929565b60008484015250505050565b600061195b8261190a565b6119658185611915565b9350611975818560208601611926565b61197e816116e0565b840191505092915050565b600060208201905081810360008301526119a38184611950565b905092915050565b6000602082840312156119c1576119c06116cc565b5b600082013567ffffffffffffffff8111156119df576119de6116d1565b5b6119eb848285016117ee565b91505092915050565b7f4e487b7100000000000000000000000000000000000000000000000000000000600052602160045260246000fd5b60058110611a3457611a336119f4565b5b50565b6000819050611a4582611a23565b919050565b6000611a5582611a37565b9050919050565b611a6581611a4a565b82525050565b6000602082019050611a806000830184611a5c565b92915050565b611a8f8161181c565b82525050565b6000602082019050611aaa6000830184611a86565b92915050565b600060ff82169050919050565b611ac681611ab0565b82525050565b6000602082019050611ae16000830184611abd565b92915050565b60008060408385031215611afe57611afd6116cc565b5b6000611b0c8582860161183d565b925050602083013567ffffffffffffffff811115611b2d57611b2c6116d1565b5b611b39858286016117ee565b9150509250929050565b7f4f6e6c792063726561746f722063616e2063616c6c20746869732066756e637460008201527f696f6e0000000000000000000000000000000000000000000000000000000000602082015250565b6000611b9f602383611915565b9150611baa82611b43565b604082019050919050565b60006020820190508181036000830152611bce81611b92565b9050919050565b7f43616e206f6e6c7920646973707574652066696c6c65642061677265656d656e60008201527f7473000000000000000000000000000000000000000000000000000000000000602082015250565b6000611c31602283611915565b9150611c3c82611bd5565b604082019050919050565b60006020820190508181036000830152611c6081611c24565b9050919050565b7f50726f706f73656420616d6f756e742063616e6e6f742065786365656420646560008201527f706f736974656420616d6f756e74000000000000000000000000000000000000602082015250565b6000611cc3602e83611915565b9150611cce82611c67565b604082019050919050565b60006020820190508181036000830152611cf281611cb6565b9050919050565b7f4e487b7100000000000000000000000000000000000000000000000000000000600052602260045260246000fd5b60006002820490506001821680611d4057607f821691505b602082108103611d5357611d52611cf9565b5b50919050565b60008190508160005260206000209050919050565b60006020601f8301049050919050565b600082821b905092915050565b600060088302611dbb7fffffffffffffffffffffffffffffffffffffffffffffffffffffffffffffffff82611d7e565b611dc58683611d7e565b95508019841693508086168417925050509392505050565b6000819050919050565b6000611e02611dfd611df88461181c565b611ddd565b61181c565b9050919050565b6000819050919050565b611e1c83611de7565b611e30611e2882611e09565b848454611d8b565b825550505050565b600090565b611e45611e38565b611e50818484611e13565b505050565b5b81811015611e7457611e69600082611e3d565b600181019050611e56565b5050565b601f821115611eb957611e8a81611d59565b611e9384611d6e565b81016020851015611ea2578190505b611eb6611eae85611d6e565b830182611e55565b50505b505050565b600082821c905092915050565b6000611edc60001984600802611ebe565b1980831691505092915050565b6000611ef58383611ecb565b9150826002028217905092915050565b611f0e8261190a565b67ffffffffffffffff811115611f2757611f266116f1565b5b611f318254611d28565b611f3c828285611e78565b600060209050601f831160018114611f6f5760008415611f5d578287015190505b611f678582611ee9565b865550611fcf565b601f198416611f7d86611d59565b60005b82811015611fa557848901518255600182019150602085019450602081019050611f80565b86831015611fc25784890151611fbe601f891682611ecb565b8355505b6001600288020188555050505b505050505050565b60006040820190508181036000830152611ff18185611950565b90506120006020830184611a86565b9392505050565b7f43616e206f6e6c792063616e63656c2070656e64696e672061677265656d656e60008201527f7473000000000000000000000000000000000000000000000000000000000000602082015250565b6000612063602283611915565b915061206e82612007565b604082019050919050565b6000602082019050818103600083015261209281612056565b9050919050565b7f46756e6473206e6f742066696c6c656400000000000000000000000000000000600082015250565b60006120cf601083611915565b91506120da82612099565b602082019050919050565b600060208201905081810360008301526120fe816120c2565b9050919050565b7f446561646c696e65206e6f742072656163686564000000000000000000000000600082015250565b600061213b601483611915565b915061214682612105565b602082019050919050565b6000602082019050818103600083015261216a8161212e565b9050919050565b7f4e6f206163746976652064697370757465000000000000000000000000000000600082015250565b60006121a7601183611915565b91506121b282612171565b602082019050919050565b600060208201905081810360008301526121d68161219a565b9050919050565b7f41677265656d656e74206e6f7420617661696c61626c6520666f72206465706f60008201527f7369740000000000000000000000000000000000000000000000000000000000602082015250565b6000612239602383611915565b9150612244826121dd565b604082019050919050565b600060208201905081810360008301526122688161222c565b9050919050565b7f4465706f73697420616c7265616479206d61646520627920736f6d656f6e652060008201527f656c736500000000000000000000000000000000000000000000000000000000602082015250565b60006122cb602483611915565b91506122d68261226f565b604082019050919050565b600060208201905081810360008301526122fa816122be565b9050919050565b7f43616e6e6f742072656c65617365206d6f7265207468616e206465706f73697460008201527f6564000000000000000000000000000000000000000000000000000000000000602082015250565b600061235d602283611915565b915061236882612301565b604082019050919050565b6000602082019050818103600083015261238c81612350565b9050919050565b7f4e487b7100000000000000000000000000000000000000000000000000000000600052601160045260246000fd5b60006123cd8261181c565b91506123d88361181c565b92508282039050818111156123f0576123ef612393565b5b92915050565b600060608201905061240b60008301866118e0565b61241860208301856118e0565b6124256040830184611a86565b949350505050565b600081519050919050565b600081905092915050565b600061244e8261242d565b6124588185612438565b9350612468818560208601611926565b80840191505092915050565b60006124808284612443565b915081905092915050565b7f546f6b656e207472616e7366657246726f6d206661696c656400000000000000600082015250565b60006124c1601983611915565b91506124cc8261248b565b602082019050919050565b600060208201905081810360008301526124f0816124b4565b9050919050565b60008115159050919050565b61250c816124f7565b811461251757600080fd5b50565b60008151905061252981612503565b92915050565b600060208284031215612545576125446116cc565b5b60006125538482850161251a565b91505092915050565b7f546f6b656e207472616e7366657246726f6d2072657475726e65642066616c7360008201527f6500000000000000000000000000000000000000000000000000000000000000602082015250565b60006125b8602183611915565b91506125c38261255c565b604082019050919050565b600060208201905081810360008301526125e7816125ab565b9050919050565b600060408201905061260360008301856118e0565b6126106020830184611a86565b9392505050565b7f546f6b656e207472616e73666572206661696c65640000000000000000000000600082015250565b600061264d601583611915565b915061265882612617565b602082019050919050565b6000602082019050818103600083015261267c81612640565b9050919050565b7f546f6b656e207472616e736665722072657475726e65642066616c7365000000600082015250565b60006126b9601d83611915565b91506126c482612683565b602082019050919050565b600060208201905081810360008301526126e8816126ac565b905091905056fea2646970667358221220fb69348d60e9e9b3cfe2f1f39e5b5f53cac1229d19aaa4dddba2df666ef881fb64736f6c63430008140033",
  "linkReferences": {},
  "deployedLinkReferences": {}
}